{
  "contractName": "Ethstarter",
  "abi": [
    {
      "constant": true,
      "inputs": [
        {
          "name": "",
          "type": "uint256"
        }
      ],
      "name": "projects",
      "outputs": [
        {
          "name": "id",
          "type": "uint256"
        },
        {
          "name": "title",
          "type": "string"
        },
        {
          "name": "description",
          "type": "string"
        },
        {
          "name": "target",
          "type": "uint256"
        },
        {
          "name": "currentValue",
          "type": "uint256"
        }
      ],
      "payable": false,
      "stateMutability": "view",
      "type": "function",
      "signature": "0x107046bd"
    },
    {
      "constant": true,
      "inputs": [],
      "name": "projectsCounter",
      "outputs": [
        {
          "name": "",
          "type": "uint256"
        }
      ],
      "payable": false,
      "stateMutability": "view",
      "type": "function",
      "signature": "0xfe360ea5"
    },
    {
      "inputs": [],
      "payable": true,
      "stateMutability": "payable",
      "type": "constructor",
      "signature": "constructor"
    },
    {
      "anonymous": false,
      "inputs": [
        {
          "indexed": true,
          "name": "_projectId",
          "type": "uint256"
        }
      ],
      "name": "newAugmentation",
      "type": "event",
      "signature": "0x490b2bad5e91f7cbf1dbe0f96abf7eafae9c3750d7d4323a42921e944f69f96d"
    },
    {
      "constant": false,
      "inputs": [
        {
          "name": "_title",
          "type": "string"
        },
        {
          "name": "_description",
          "type": "string"
        },
        {
          "name": "_target",
          "type": "uint256"
        }
      ],
      "name": "addProject",
      "outputs": [],
      "payable": false,
      "stateMutability": "nonpayable",
      "type": "function",
      "signature": "0x5fd4f758"
    },
    {
      "constant": false,
      "inputs": [
        {
          "name": "_title",
          "type": "string"
        },
        {
          "name": "_description",
          "type": "string"
        },
        {
          "name": "_target",
          "type": "uint256"
        }
      ],
      "name": "addDefaultProject",
      "outputs": [],
      "payable": false,
      "stateMutability": "nonpayable",
      "type": "function",
      "signature": "0x9ba93098"
    },
    {
      "constant": false,
      "inputs": [
        {
          "name": "_projectId",
          "type": "uint256"
        },
        {
          "name": "_contributionAmount",
          "type": "uint256"
        }
      ],
      "name": "contribute",
      "outputs": [],
      "payable": true,
      "stateMutability": "payable",
      "type": "function",
      "signature": "0x8c590917"
    }
  ],
  "bytecode": "0x60806040526100fe6040805190810160405280601081526020017f3344205072696e7465642053686f65730000000000000000000000000000000081525060a060405190810160405280606581526020017f506f776572656420627920534c4120546563686e6f6c6f67792c20746865736581526020017f20637573746f6d69736564203344205072696e7465642073686f65732061726581526020017f20666c657869626c652c20636f6d666f727461626c6520616e64206572676f6e81526020017f6f6d69632e000000000000000000000000000000000000000000000000000000815250620249f06102ab640100000000026401000000009004565b6101f86040805190810160405280601a81526020017f53656c662d48656174696e67204561726c20477265792054656100000000000081525060a060405190810160405280607081526020017f4a7573742061646420636f6f6c20776174657220616e6420746865207765276c81526020017f6c20736574746c6520746865207265737420666f7220796f752c2064656c697681526020017f6572696e672061207761726d20637570206f66206465636164656e742065617281526020017f6c2067726579206d696c6b207465612e0000000000000000000000000000000081525062030d406102ab640100000000026401000000009004565b6102a66040805190810160405280601681526020017f536f6c617220506f77657265642053636f6f7465727300000000000000000000815250606060405190810160405280603c81526020017f477265656e2045636f2d667269656e646c792053636f6f7465727320746f206281526020017f72696e6720796f75206a75737420776865726520796f752077616e7400000000815250620186a06102ab640100000000026401000000009004565b6103ff565b6001806000828254019250508190555060a06040519081016040528060015481526020018481526020018381526020018281526020016000815250600080600154815260200190815260200160002060008201518160000155602082015181600101908051906020019061032092919061035a565b50604082015181600201908051906020019061033d92919061035a565b506060820151816003015560808201518160040155905050505050565b828054600181600116156101000203166002900490600052602060002090601f016020900481019282601f1061039b57805160ff19168380011785556103c9565b828001600101855582156103c9579182015b828111156103c85782518255916020019190600101906103ad565b5b5090506103d691906103da565b5090565b6103fc91905b808211156103f85760008160009055506001016103e0565b5090565b90565b610a2c8061040e6000396000f3fe60806040526004361061006d576000357c0100000000000000000000000000000000000000000000000000000000900463ffffffff168063107046bd146100725780635fd4f758146101a75780638c590917146103105780639ba9309814610348578063fe360ea5146104b1575b600080fd5b34801561007e57600080fd5b506100ab6004803603602081101561009557600080fd5b81019080803590602001909291905050506104dc565b604051808681526020018060200180602001858152602001848152602001838103835287818151815260200191508051906020019080838360005b838110156101015780820151818401526020810190506100e6565b50505050905090810190601f16801561012e5780820380516001836020036101000a031916815260200191505b50838103825286818151815260200191508051906020019080838360005b8381101561016757808201518184015260208101905061014c565b50505050905090810190601f1680156101945780820380516001836020036101000a031916815260200191505b5097505050505050505060405180910390f35b3480156101b357600080fd5b5061030e600480360360608110156101ca57600080fd5b81019080803590602001906401000000008111156101e757600080fd5b8201836020820111156101f957600080fd5b8035906020019184600183028401116401000000008311171561021b57600080fd5b91908080601f016020809104026020016040519081016040528093929190818152602001838380828437600081840152601f19601f8201169050808301925050505050505091929192908035906020019064010000000081111561027e57600080fd5b82018360208201111561029057600080fd5b803590602001918460018302840111640100000000831117156102b257600080fd5b91908080601f016020809104026020016040519081016040528093929190818152602001838380828437600081840152601f19601f82011690508083019250505050505050919291929080359060200190929190505050610642565b005b6103466004803603604081101561032657600080fd5b810190808035906020019092919080359060200190929190505050610720565b005b34801561035457600080fd5b506104af6004803603606081101561036b57600080fd5b810190808035906020019064010000000081111561038857600080fd5b82018360208201111561039a57600080fd5b803590602001918460018302840111640100000000831117156103bc57600080fd5b91908080601f016020809104026020016040519081016040528093929190818152602001838380828437600081840152601f19601f8201169050808301925050505050505091929192908035906020019064010000000081111561041f57600080fd5b82018360208201111561043157600080fd5b8035906020019184600183028401116401000000008311171561045357600080fd5b91908080601f016020809104026020016040519081016040528093929190818152602001838380828437600081840152601f19601f820116905080830192505050505050509192919290803590602001909291905050506108a6565b005b3480156104bd57600080fd5b506104c6610955565b6040518082815260200191505060405180910390f35b6000602052806000526040600020600091509050806000015490806001018054600181600116156101000203166002900480601f01602080910402602001604051908101604052809291908181526020018280546001816001161561010002031660029004801561058e5780601f106105635761010080835404028352916020019161058e565b820191906000526020600020905b81548152906001019060200180831161057157829003601f168201915b505050505090806002018054600181600116156101000203166002900480601f01602080910402602001604051908101604052809291908181526020018280546001816001161561010002031660029004801561062c5780601f106106015761010080835404028352916020019161062c565b820191906000526020600020905b81548152906001019060200180831161060f57829003601f168201915b5050505050908060030154908060040154905085565b6001806000828254019250508190555060a0604051908101604052806001548152602001848152602001838152602001828152602001600081525060008060015481526020019081526020016000206000820151816000015560208201518160010190805190602001906106b792919061095b565b5060408201518160020190805190602001906106d492919061095b565b5060608201518160030155608082015181600401559050506001547f490b2bad5e91f7cbf1dbe0f96abf7eafae9c3750d7d4323a42921e944f69f96d60405160405180910390a2505050565b600066038d7ea4c680003373ffffffffffffffffffffffffffffffffffffffff163181151561074b57fe5b04905081811015151561075d57600080fd5b600066038d7ea4c680003481151561077157fe5b049050828114151561078257600080fd5b60008411801561079457506001548411155b151561079f57600080fd5b6000806000868152602001908152602001600020600401549050600080600087815260200190815260200160002060030154905080858301111561084d576000818684010390503373ffffffffffffffffffffffffffffffffffffffff166108fc829081150290604051600060405180830381858888f1935050505015801561082c573d6000803e3d6000fd5b50816000808981526020019081526020016000206004018190555050610871565b84600080888152602001908152602001600020600401600082825401925050819055505b857f490b2bad5e91f7cbf1dbe0f96abf7eafae9c3750d7d4323a42921e944f69f96d60405160405180910390a2505050505050565b6001806000828254019250508190555060a06040519081016040528060015481526020018481526020018381526020018281526020016000815250600080600154815260200190815260200160002060008201518160000155602082015181600101908051906020019061091b92919061095b565b50604082015181600201908051906020019061093892919061095b565b506060820151816003015560808201518160040155905050505050565b60015481565b828054600181600116156101000203166002900490600052602060002090601f016020900481019282601f1061099c57805160ff19168380011785556109ca565b828001600101855582156109ca579182015b828111156109c95782518255916020019190600101906109ae565b5b5090506109d791906109db565b5090565b6109fd91905b808211156109f95760008160009055506001016109e1565b5090565b9056fea165627a7a723058200196b26e9e526ea00928d26770a5f8b6b25068a37266e6b2d6e226b596448f200029",
  "source": "pragma solidity ^0.5.0;\n\ncontract Ethstarter {\n    // Create Project struct with variables (add string url)\n    struct Project {\n        uint id;\n        string title;\n        string description;\n        uint target;\n        uint currentValue;\n    }\n    \n    // Implement Mapping to retrieve Project based on id\n    mapping(uint => Project) public projects;\n    \n    // Initialise projectsCounter variable to track number of projects\n    uint public projectsCounter;\n    \n    // Create event that takes in projectId for either creation of new project by user or contribution to project. This event will trigger the reloading of page to update content\n    event newAugmentation(uint indexed _projectId);\n    \n    // Constructor which initialises 6 Default projects\n    constructor() public payable {\n        addDefaultProject(\"3D Printed Shoes\", \"Powered by SLA Technology, these customised 3D Printed shoes are flexible, comfortable and ergonomic.\", 150000);\n        addDefaultProject(\"Self-Heating Earl Grey Tea\", \"Just add cool water and the we'll settle the rest for you, delivering a warm cup of decadent earl grey milk tea.\", 200000);\n        addDefaultProject(\"Solar Powered Scooters\", \"Green Eco-friendly Scooters to bring you just where you want\", 100000);\n    }\n    \n    // Function for users to create new project\n    function addProject(string memory _title, string memory _description, uint _target) public {\n        // Increment number of projects by one\n        projectsCounter += 1;\n        // Create project and store it in the mapping of projectIds to project\n        projects[projectsCounter] = Project(projectsCounter, _title, _description, _target, 0);\n        // Emit event to trigger reloading of page\n        emit newAugmentation(projectsCounter);         \n    }\n\n    // Fucntion for initialization of default projects\n    function addDefaultProject(string memory _title, string memory _description, uint _target) public {\n        // Increment number of projects by one\n        projectsCounter += 1;\n        // Create Project and store it in the mapping o projectIds to project\n        projects[projectsCounter] = Project(projectsCounter, _title, _description, _target, 0);              \n    }\n    \n    function contribute(uint _projectId, uint _contributionAmount) public payable {        \n        // Check that user has sufficient balance in account (units in finney as solidity does not have floats)\n        uint userBalance = msg.sender.balance / 1000000000000000;\n        require(userBalance >= _contributionAmount);\n        \n        // Require that message value is equal to user's contribution account\n        uint messageValue = msg.value /1000000000000000;\n        require(messageValue == _contributionAmount);  \n        \n        // Ensure projectId is valid\n        require(_projectId > 0 && _projectId <= projectsCounter);\n        \n        // Check if user's contribution exceeds target\n        uint projectCurrentValue = projects[_projectId].currentValue;\n        uint projectTarget = projects[_projectId].target;\n        if (projectCurrentValue + _contributionAmount > projectTarget) {\n            uint excess = projectCurrentValue + _contributionAmount - projectTarget;\n            msg.sender.transfer(excess);\n            projects[_projectId].currentValue = projectTarget;\n            \n        } else {\n            // add amount to project\n            projects[_projectId].currentValue += _contributionAmount;\n        }\n        \n        \n        \n        \n        // Record event\n        emit newAugmentation(_projectId);\n    }\n}",
  "sourcePath": "/home/jeremy/Desktop/Archive/petshop/contracts/Ethstarter.sol",
  "compiler": {
    "name": "solc",
    "version": "0.5.0+commit.1d4f565a.Emscripten.clang"
  },
  "schemaVersion": "3.0.0",
  "updatedAt": "2019-01-21T15:22:29.980Z",
  "devdoc": {
    "methods": {}
  },
  "userdoc": {
    "methods": {}
  }
}