{
  "contractName": "Ethstarter",
  "abi": [
    {
      "constant": true,
      "inputs": [
        {
          "name": "",
          "type": "uint256"
        }
      ],
      "name": "projects",
      "outputs": [
        {
          "name": "id",
          "type": "uint256"
        },
        {
          "name": "title",
          "type": "string"
        },
        {
          "name": "description",
          "type": "string"
        },
        {
          "name": "url",
          "type": "string"
        },
        {
          "name": "target",
          "type": "uint256"
        },
        {
          "name": "currentValue",
          "type": "uint256"
        }
      ],
      "payable": false,
      "stateMutability": "view",
      "type": "function",
      "signature": "0x107046bd"
    },
    {
      "constant": true,
      "inputs": [],
      "name": "projectsCounter",
      "outputs": [
        {
          "name": "",
          "type": "uint256"
        }
      ],
      "payable": false,
      "stateMutability": "view",
      "type": "function",
      "signature": "0xfe360ea5"
    },
    {
      "inputs": [],
      "payable": true,
      "stateMutability": "payable",
      "type": "constructor",
      "signature": "constructor"
    },
    {
      "anonymous": false,
      "inputs": [
        {
          "indexed": true,
          "name": "_projectId",
          "type": "uint256"
        }
      ],
      "name": "newContributionNotification",
      "type": "event",
      "signature": "0x4f23c65ddfa69b488eabd247c1d889c4fa2d8e297ff2101c48d0bdccbe1f470a"
    },
    {
      "anonymous": false,
      "inputs": [
        {
          "indexed": true,
          "name": "_projectId",
          "type": "uint256"
        }
      ],
      "name": "newProjectNotification",
      "type": "event",
      "signature": "0x25d9de16593ee0edb8ae55b3d9dfac2a6720bab4e7a9e37fb530259cd89345bf"
    },
    {
      "constant": false,
      "inputs": [
        {
          "name": "_title",
          "type": "string"
        },
        {
          "name": "_description",
          "type": "string"
        },
        {
          "name": "_url",
          "type": "string"
        },
        {
          "name": "_target",
          "type": "uint256"
        }
      ],
      "name": "addProject",
      "outputs": [],
      "payable": false,
      "stateMutability": "nonpayable",
      "type": "function",
      "signature": "0x20943f7a"
    },
    {
      "constant": false,
      "inputs": [
        {
          "name": "_projectId",
          "type": "uint256"
        },
        {
          "name": "_contributionAmount",
          "type": "uint256"
        }
      ],
      "name": "contribute",
      "outputs": [],
      "payable": true,
      "stateMutability": "payable",
      "type": "function",
      "signature": "0x8c590917"
    }
  ],
  "bytecode": "0x608060405260008060006101000a81548160ff021916908315150217905550620001776040805190810160405280601081526020017f3344205072696e7465642053686f657300000000000000000000000000000000815250606060405190810160405280603b81526020017f466c657869626c6520616e64206572676f6e6f6d696320666f6f74776561722081526020017f637573746f6d697a656420746f20796f75722064656c696768742e000000000081525060a060405190810160405280607081526020017f68747470733a2f2f696d616765732e706578656c732e636f6d2f70686f746f7381526020017f2f3334353431352f706578656c732d70686f746f2d3334353431352e6a70656781526020017f3f63733d7372676226646c3d616374696f6e2d6169722d62616c616e63652d3381526020017f34353431352e6a706726666d3d6a706700000000000000000000000000000000815250620249f0620005d4640100000000026401000000009004565b6200031c6040805190810160405280601a81526020017f53656c662d48656174696e67204561726c20477265792054656100000000000081525060a060405190810160405280607081526020017f4a7573742061646420636f6f6c20776174657220616e6420746865207765276c81526020017f6c20736574746c6520746865207265737420666f7220796f752c2064656c697681526020017f6572696e672061207761726d20637570206f66206465636164656e742065617281526020017f6c2067726579206d696c6b207465612e0000000000000000000000000000000081525060a060405190810160405280607381526020017f68747470733a2f2f696d616765732e706578656c732e636f6d2f70686f746f7381526020017f2f3232393439332f706578656c732d70686f746f2d3232393439332e6a70656781526020017f3f63733d7372676226646c3d626f776c2d6361666665696e652d636f6f6b696e81526020017f672d3232393439332e6a706726666d3d6a70670000000000000000000000000081525062030d40620005d4640100000000026401000000009004565b620004756040805190810160405280601681526020017f536f6c617220506f77657265642053636f6f7465727300000000000000000000815250606060405190810160405280603c81526020017f477265656e2045636f2d667269656e646c792053636f6f7465727320746f206281526020017f72696e6720796f75206a75737420776865726520796f752077616e740000000081525060a060405190810160405280607b81526020017f68747470733a2f2f696d616765732e706578656c732e636f6d2f70686f746f7381526020017f2f313733313735312f706578656c732d70686f746f2d313733313735312e6a7081526020017f65673f63733d7372676226646c3d636c6f73652d75702d68616e646c6562617281526020017f2d73636f6f7465722d313733313735312e6a706726666d3d6a70670000000000815250620186a0620005d4640100000000026401000000009004565b620005ce6040805190810160405280601281526020017f4175746f6e6f6d6f757320476f204b6172740000000000000000000000000000815250606060405190810160405280603a81526020017f506f77657265642062792044656570204c6561726e696e6720416c676f72697481526020017f686d732c20526163696e67206f6e2061206e6577206c6576656c00000000000081525060a060405190810160405280607d81526020017f68747470733a2f2f696d616765732e706578656c732e636f6d2f70686f746f7381526020017f2f3832313732332f706578656c732d70686f746f2d3832313732332e6a70656781526020017f3f63733d7372676226646c3d616374696f6e2d61737068616c742d626c61636b81526020017f2d6261636b67726f756e642d3832313732332e6a706726666d3d6a7067000000815250620493e0620005d4640100000000026401000000009004565b6200075e565b600160026000828254019250508190555060c0604051908101604052806002548152602001858152602001848152602001838152602001828152602001600081525060016000600254815260200190815260200160002060008201518160000155602082015181600101908051906020019062000653929190620006af565b50604082015181600201908051906020019062000672929190620006af565b50606082015181600301908051906020019062000691929190620006af565b506080820151816004015560a0820151816005015590505050505050565b828054600181600116156101000203166002900490600052602060002090601f016020900481019282601f10620006f257805160ff191683800117855562000723565b8280016001018555821562000723579182015b828111156200072257825182559160200191906001019062000705565b5b50905062000732919062000736565b5090565b6200075b91905b80821115620007575760008160009055506001016200073d565b5090565b90565b610a29806200076e6000396000f3fe608060405260043610610062576000357c0100000000000000000000000000000000000000000000000000000000900463ffffffff168063107046bd1461006757806320943f7a146102085780638c59091714610408578063fe360ea514610440575b600080fd5b34801561007357600080fd5b506100a06004803603602081101561008a57600080fd5b810190808035906020019092919050505061046b565b60405180878152602001806020018060200180602001868152602001858152602001848103845289818151815260200191508051906020019080838360005b838110156100fa5780820151818401526020810190506100df565b50505050905090810190601f1680156101275780820380516001836020036101000a031916815260200191505b50848103835288818151815260200191508051906020019080838360005b83811015610160578082015181840152602081019050610145565b50505050905090810190601f16801561018d5780820380516001836020036101000a031916815260200191505b50848103825287818151815260200191508051906020019080838360005b838110156101c65780820151818401526020810190506101ab565b50505050905090810190601f1680156101f35780820380516001836020036101000a031916815260200191505b50995050505050505050505060405180910390f35b34801561021457600080fd5b506104066004803603608081101561022b57600080fd5b810190808035906020019064010000000081111561024857600080fd5b82018360208201111561025a57600080fd5b8035906020019184600183028401116401000000008311171561027c57600080fd5b91908080601f016020809104026020016040519081016040528093929190818152602001838380828437600081840152601f19601f820116905080830192505050505050509192919290803590602001906401000000008111156102df57600080fd5b8201836020820111156102f157600080fd5b8035906020019184600183028401116401000000008311171561031357600080fd5b91908080601f016020809104026020016040519081016040528093929190818152602001838380828437600081840152601f19601f8201169050808301925050505050505091929192908035906020019064010000000081111561037657600080fd5b82018360208201111561038857600080fd5b803590602001918460018302840111640100000000831117156103aa57600080fd5b91908080601f016020809104026020016040519081016040528093929190818152602001838380828437600081840152601f19601f8201169050808301925050505050505091929192908035906020019092919050505061066f565b005b61043e6004803603604081101561041e57600080fd5b81019080803590602001909291908035906020019092919050505061078c565b005b34801561044c57600080fd5b50610455610952565b6040518082815260200191505060405180910390f35b6001602052806000526040600020600091509050806000015490806001018054600181600116156101000203166002900480601f01602080910402602001604051908101604052809291908181526020018280546001816001161561010002031660029004801561051d5780601f106104f25761010080835404028352916020019161051d565b820191906000526020600020905b81548152906001019060200180831161050057829003601f168201915b505050505090806002018054600181600116156101000203166002900480601f0160208091040260200160405190810160405280929190818152602001828054600181600116156101000203166002900480156105bb5780601f10610590576101008083540402835291602001916105bb565b820191906000526020600020905b81548152906001019060200180831161059e57829003601f168201915b505050505090806003018054600181600116156101000203166002900480601f0160208091040260200160405190810160405280929190818152602001828054600181600116156101000203166002900480156106595780601f1061062e57610100808354040283529160200191610659565b820191906000526020600020905b81548152906001019060200180831161063c57829003601f168201915b5050505050908060040154908060050154905086565b6000809054906101000a900460ff161561068857600080fd5b600160026000828254019250508190555060c06040519081016040528060025481526020018581526020018481526020018381526020018281526020016000815250600160006002548152602001908152602001600020600082015181600001556020820151816001019080519060200190610705929190610958565b506040820151816002019080519060200190610722929190610958565b50606082015181600301908051906020019061073f929190610958565b506080820151816004015560a082015181600501559050506002547f25d9de16593ee0edb8ae55b3d9dfac2a6720bab4e7a9e37fb530259cd89345bf60405160405180910390a250505050565b6000809054906101000a900460ff16156107a557600080fd5b600066038d7ea4c680003373ffffffffffffffffffffffffffffffffffffffff16318115156107d057fe5b0490508181101515156107e257600080fd5b600066038d7ea4c68000348115156107f657fe5b04905082811415156108215760016000806101000a81548160ff021916908315150217905550600080fd5b60008411801561083357506002548411155b151561083e57600080fd5b6000600160008681526020019081526020016000206005015490506000600160008781526020019081526020016000206004015490508085830111156108f8576000818684010390503373ffffffffffffffffffffffffffffffffffffffff166108fc66038d7ea4c6800083029081150290604051600060405180830381858888f193505050501580156108d6573d6000803e3d6000fd5b508160016000898152602001908152602001600020600501819055505061091d565b8460016000888152602001908152602001600020600501600082825401925050819055505b857f4f23c65ddfa69b488eabd247c1d889c4fa2d8e297ff2101c48d0bdccbe1f470a60405160405180910390a2505050505050565b60025481565b828054600181600116156101000203166002900490600052602060002090601f016020900481019282601f1061099957805160ff19168380011785556109c7565b828001600101855582156109c7579182015b828111156109c65782518255916020019190600101906109ab565b5b5090506109d491906109d8565b5090565b6109fa91905b808211156109f65760008160009055506001016109de565b5090565b9056fea165627a7a723058209d937fb4a79f1fcaca388a994889ae4d31d3206f1efd0902224f0eeb1ab561510029",
  "source": "pragma solidity ^0.5.0;\n\ncontract Ethstarter {\n    \n    // initialise circuit breaker variable to be false. If variable is set to true, adding project and contributions functionality will revert as part of safety in designing this system\n    bool private emergencyAlert = false;\n    // Create Project struct with variables (add string url)\n    struct Project {\n        uint id;\n        string title;\n        string description;\n        string url;\n        uint target;\n        uint currentValue;\n    }\n    \n    modifier emergencyStop {\n        if (emergencyAlert) {\n            revert();\n        }\n        _;\n    }\n    // Implement Mapping to retrieve Project based on id\n    mapping(uint => Project) public projects;\n    \n    // Initialise projectsCounter variable to track number of projects\n    uint public projectsCounter;\n    \n    // Create event that takes in projectId for either creation of new project by user or contribution to project. This event will trigger the reloading of page to update content\n    event newContributionNotification(uint indexed _projectId);\n    event newProjectNotification(uint indexed _projectId);\n    \n    // Constructor which initialises 4 Default projects\n    constructor() public payable {\n        addDefaultProject(\"3D Printed Shoes\", \"Flexible and ergonomic footwear customized to your delight.\", \"https://images.pexels.com/photos/345415/pexels-photo-345415.jpeg?cs=srgb&dl=action-air-balance-345415.jpg&fm=jpg\", 150000);\n        addDefaultProject(\"Self-Heating Earl Grey Tea\", \"Just add cool water and the we'll settle the rest for you, delivering a warm cup of decadent earl grey milk tea.\", \"https://images.pexels.com/photos/229493/pexels-photo-229493.jpeg?cs=srgb&dl=bowl-caffeine-cooking-229493.jpg&fm=jpg\", 200000);\n        addDefaultProject(\"Solar Powered Scooters\", \"Green Eco-friendly Scooters to bring you just where you want\", \"https://images.pexels.com/photos/1731751/pexels-photo-1731751.jpeg?cs=srgb&dl=close-up-handlebar-scooter-1731751.jpg&fm=jpg\", 100000);\n        addDefaultProject(\"Autonomous Go Kart\", \"Powered by Deep Learning Algorithms, Racing on a new level\", \"https://images.pexels.com/photos/821723/pexels-photo-821723.jpeg?cs=srgb&dl=action-asphalt-black-background-821723.jpg&fm=jpg\", 300000);\n    }\n    \n    // Function for users to create new project\n    function addProject(string memory _title, string memory _description, string memory _url, uint _target) emergencyStop public {\n        // Increment number of projects by one\n        projectsCounter += 1;\n        // Create project and store it in the mapping of projectIds to project\n        projects[projectsCounter] = Project(projectsCounter, _title, _description, _url, _target, 0);\n        // Emit event to trigger reloading of page\n        emit newProjectNotification(projectsCounter);         \n    }\n\n    // Fucntion for initialization of default projects\n    function addDefaultProject(string memory _title, string memory _description, string memory _url, uint _target)  private {\n        // Increment number of projects by one\n        projectsCounter += 1;\n        // Create Project and store it in the mapping o projectIds to project\n        projects[projectsCounter] = Project(projectsCounter, _title, _description, _url, _target, 0);              \n    }\n    \n    function contribute(uint _projectId, uint _contributionAmount) emergencyStop public payable {        \n        // Check that user has sufficient balance in account (units in finney as solidity does not have floats)\n        uint userBalance = msg.sender.balance / 1000000000000000;\n        require(userBalance >= _contributionAmount);\n        \n        // Require that message value is equal to user's contribution account\n        uint messageValue = msg.value /1000000000000000;\n        if (messageValue != _contributionAmount) {\n            emergencyAlert = true;\n            revert();\n        }\n        // require(messageValue == _contributionAmount);  \n        \n        // Ensure projectId is valid\n        require(_projectId > 0 && _projectId <= projectsCounter);\n        \n        // Check if user's contribution exceeds target\n        uint projectCurrentValue = projects[_projectId].currentValue;\n        uint projectTarget = projects[_projectId].target;\n        if (projectCurrentValue + _contributionAmount > projectTarget) {\n            uint excess = projectCurrentValue + _contributionAmount - projectTarget;\n            msg.sender.transfer(excess * 1000000000000000);\n            projects[_projectId].currentValue = projectTarget;\n            \n        } else {\n            // add amount to project\n            projects[_projectId].currentValue += _contributionAmount;\n        }\n        // Record event\n        emit newContributionNotification(_projectId);\n    }\n}",
  "sourcePath": "/home/jeremy/Desktop/Archive/petshop/contracts/Ethstarter.sol",
  "compiler": {
    "name": "solc",
    "version": "0.5.0+commit.1d4f565a.Emscripten.clang"
  },
  "schemaVersion": "3.0.0",
  "updatedAt": "2019-01-23T15:33:11.988Z",
  "devdoc": {
    "methods": {}
  },
  "userdoc": {
    "methods": {}
  }
}